{
  "contractName": "Blockchain",
  "abi": [
    {
      "anonymous": false,
      "inputs": [
        {
          "indexed": false,
          "internalType": "address",
          "name": "sender",
          "type": "address"
        },
        {
          "indexed": false,
          "internalType": "uint256",
          "name": "amount",
          "type": "uint256"
        },
        {
          "indexed": false,
          "internalType": "string",
          "name": "data",
          "type": "string"
        }
      ],
      "name": "Deposit",
      "type": "event"
    },
    {
      "anonymous": false,
      "inputs": [
        {
          "indexed": false,
          "internalType": "string[]",
          "name": "queries",
          "type": "string[]"
        },
        {
          "indexed": false,
          "internalType": "uint256[]",
          "name": "amount",
          "type": "uint256[]"
        }
      ],
      "name": "Recieved",
      "type": "event"
    },
    {
      "constant": true,
      "inputs": [
        {
          "internalType": "address",
          "name": "",
          "type": "address"
        }
      ],
      "name": "balances",
      "outputs": [
        {
          "internalType": "uint256",
          "name": "",
          "type": "uint256"
        }
      ],
      "payable": false,
      "stateMutability": "view",
      "type": "function"
    },
    {
      "constant": true,
      "inputs": [
        {
          "internalType": "address",
          "name": "",
          "type": "address"
        }
      ],
      "name": "query",
      "outputs": [
        {
          "internalType": "string",
          "name": "",
          "type": "string"
        }
      ],
      "payable": false,
      "stateMutability": "view",
      "type": "function"
    },
    {
      "constant": true,
      "inputs": [],
      "name": "keylength",
      "outputs": [
        {
          "internalType": "uint256",
          "name": "",
          "type": "uint256"
        }
      ],
      "payable": false,
      "stateMutability": "view",
      "type": "function"
    },
    {
      "constant": true,
      "inputs": [],
      "name": "valuelength",
      "outputs": [
        {
          "internalType": "uint256",
          "name": "",
          "type": "uint256"
        }
      ],
      "payable": false,
      "stateMutability": "view",
      "type": "function"
    },
    {
      "constant": true,
      "inputs": [],
      "name": "balanceslength",
      "outputs": [
        {
          "internalType": "uint256",
          "name": "",
          "type": "uint256"
        }
      ],
      "payable": false,
      "stateMutability": "view",
      "type": "function"
    },
    {
      "constant": false,
      "inputs": [
        {
          "internalType": "string",
          "name": "data",
          "type": "string"
        }
      ],
      "name": "deposit",
      "outputs": [],
      "payable": true,
      "stateMutability": "payable",
      "type": "function"
    },
    {
      "constant": true,
      "inputs": [],
      "name": "getcount",
      "outputs": [
        {
          "internalType": "uint256",
          "name": "",
          "type": "uint256"
        }
      ],
      "payable": false,
      "stateMutability": "view",
      "type": "function"
    }
  ],
  "bytecode": "0x6080604052600a6040519080825280602002602001820160405280156100345781602001602082028038833980820191505090505b506002908051906020019061004a929190610062565b50600060055534801561005c57600080fd5b5061012f565b8280548282559060005260206000209081019282156100db579160200282015b828111156100da5782518260006101000a81548173ffffffffffffffffffffffffffffffffffffffff021916908373ffffffffffffffffffffffffffffffffffffffff16021790555091602001919060010190610082565b5b5090506100e891906100ec565b5090565b61012c91905b8082111561012857600081816101000a81549073ffffffffffffffffffffffffffffffffffffffff0219169055506001016100f2565b5090565b90565b610b1b8061013e6000396000f3fe6080604052600436106100705760003560e01c8063cfca152e1161004e578063cfca152e146100f9578063d4fc9fc614610124578063e13ea05f14610161578063facda59e1461018c57610070565b8063146af82b1461007557806327e235e3146100a0578063a26e1186146100dd575b600080fd5b34801561008157600080fd5b5061008a6101b7565b60405161009791906108bc565b60405180910390f35b3480156100ac57600080fd5b506100c760048036036100c2919081019061060e565b6101c1565b6040516100d491906108bc565b60405180910390f35b6100f760048036036100f29190810190610637565b6101d9565b005b34801561010557600080fd5b5061010e610312565b60405161011b91906108bc565b60405180910390f35b34801561013057600080fd5b5061014b6004803603610146919081019061060e565b61031f565b604051610158919061089a565b60405180910390f35b34801561016d57600080fd5b506101766103cf565b60405161018391906108bc565b60405180910390f35b34801561019857600080fd5b506101a16103dc565b6040516101ae91906108bc565b60405180910390f35b6000600554905090565b60006020528060005260406000206000915090505481565b346000803373ffffffffffffffffffffffffffffffffffffffff1673ffffffffffffffffffffffffffffffffffffffff1681526020019081526020016000206000828254019250508190555080600160003373ffffffffffffffffffffffffffffffffffffffff1673ffffffffffffffffffffffffffffffffffffffff168152602001908152602001600020908051906020019061027892919061044a565b5060038190806001815401808255809150509060018203906000526020600020016000909192909190915090805190602001906102b692919061044a565b50506004349080600181540180825580915050906001820390600052602060002001600090919290919091505550600960055414156102fc576102f76103e9565b61030f565b6005600081548092919060010191905055505b50565b6000600480549050905090565b60016020528060005260406000206000915090508054600181600116156101000203166002900480601f0160208091040260200160405190810160405280929190818152602001828054600181600116156101000203166002900480156103c75780601f1061039c576101008083540402835291602001916103c7565b820191906000526020600020905b8154815290600101906020018083116103aa57829003601f168201915b505050505081565b6000600380549050905090565b6000600280549050905090565b7fcd2e53fd74e547a3f1fe9844f2ff853bbab562e370989892d95857ed0c9b428e6003600460405161041c929190610863565b60405180910390a16003600061043291906104ca565b6004600061044091906104eb565b6000600581905550565b828054600181600116156101000203166002900490600052602060002090601f016020900481019282601f1061048b57805160ff19168380011785556104b9565b828001600101855582156104b9579182015b828111156104b857825182559160200191906001019061049d565b5b5090506104c6919061050c565b5090565b50805460008255906000526020600020908101906104e89190610531565b50565b5080546000825590600052602060002090810190610509919061050c565b50565b61052e91905b8082111561052a576000816000905550600101610512565b5090565b90565b61055a91905b80821115610556576000818161054d919061055d565b50600101610537565b5090565b90565b50805460018160011615610100020316600290046000825580601f1061058357506105a2565b601f0160209004906000526020600020908101906105a1919061050c565b5b50565b6000813590506105b481610ac1565b92915050565b600082601f8301126105cb57600080fd5b81356105de6105d982610904565b6108d7565b915080825260208301602083018583830111156105fa57600080fd5b610605838284610a34565b50505092915050565b60006020828403121561062057600080fd5b600061062e848285016105a5565b91505092915050565b60006020828403121561064957600080fd5b600082013567ffffffffffffffff81111561066357600080fd5b61066f848285016105ba565b91505092915050565b600061068483836107b6565b905092915050565b60006106988383610845565b60208301905092915050565b60006106af8261096f565b6106b981856109aa565b9350836020820285016106cb85610930565b8060005b85811015610706578484038952816106e78582610678565b94506106f283610990565b925060208a019950506001810190506106cf565b50829750879550505050505092915050565b60006107238261097a565b61072d81856109bb565b935061073883610945565b8060005b838110156107705761074d82610a90565b610757888261068c565b97506107628361099d565b92505060018101905061073c565b5085935050505092915050565b600061078882610985565b61079281856109dd565b93506107a2818560208601610a43565b6107ab81610aa3565b840191505092915050565b6000815460018116600081146107d357600181146107f95761083d565b607f60028304166107e481876109cc565b955060ff19831686526020860193505061083d565b6002820461080781876109cc565b95506108128561095a565b60005b8281101561083457815481890152600182019150602081019050610815565b80880195505050505b505092915050565b61084e81610a2a565b82525050565b61085d81610a2a565b82525050565b6000604082019050818103600083015261087d81856106a4565b905081810360208301526108918184610718565b90509392505050565b600060208201905081810360008301526108b4818461077d565b905092915050565b60006020820190506108d16000830184610854565b92915050565b6000604051905081810181811067ffffffffffffffff821117156108fa57600080fd5b8060405250919050565b600067ffffffffffffffff82111561091b57600080fd5b601f19601f8301169050602081019050919050565b60008190508160005260206000209050919050565b60008190508160005260206000209050919050565b60008190508160005260206000209050919050565b600081549050919050565b600081549050919050565b600081519050919050565b6000600182019050919050565b6000600182019050919050565b600082825260208201905092915050565b600082825260208201905092915050565b600082825260208201905092915050565b600082825260208201905092915050565b6000819050919050565b6000610a0382610a0a565b9050919050565b600073ffffffffffffffffffffffffffffffffffffffff82169050919050565b6000819050919050565b82818337600083830152505050565b60005b83811015610a61578082015181840152602081019050610a46565b83811115610a70576000848401525b50505050565b6000610a89610a8483610ab4565b6109ee565b9050919050565b6000610a9c8254610a76565b9050919050565b6000601f19601f8301169050919050565b60008160001c9050919050565b610aca816109f8565b8114610ad557600080fd5b5056fea365627a7a72315820df9e8191ae9d06361bf401253394dbe9617d625545bae1fbcd1f887d9acd16926c6578706572696d656e74616cf564736f6c63430005100040",
  "source": "pragma solidity ^0.5.16;\r\npragma experimental ABIEncoderV2;\r\n// SPDX-License-Identifier: MIT\r\n\r\ncontract Blockchain {\r\n\r\n    mapping(address => uint) public balances;\r\n    mapping(address=> string) public query;\r\n   address[] myKeys_balances= new address[](10);\r\n    string[] strings;\r\n    uint[] balance ;\r\n   \r\n\r\n  \r\n        function send()private {\r\n            \r\n            emit Recieved(strings,balance);\r\n                delete strings;\r\n                delete balance;\r\n                count=0;\r\n\r\n        }\r\n\r\n\r\n\r\nfunction keylength() public view returns(uint){\r\nreturn myKeys_balances.length;\r\n}\r\nfunction valuelength() public view returns(uint){\r\nreturn strings.length;\r\n}\r\nfunction balanceslength() public view returns(uint){\r\nreturn balance.length;\r\n}\r\n \r\n    event Deposit(address sender, uint amount,string  data);\r\n    event Recieved(string[] queries, uint[] amount);\r\n   // event Transfer(address sender, address receiver, uint amount,string  data);\r\n    uint count=0;\r\n\r\n\r\n\r\n    function deposit(string memory data) public payable {\r\n       \r\n        //emit Deposit(msg.sender, msg.value,data);\r\n        balances[msg.sender] += msg.value;\r\n        query[msg.sender]=data;\r\n     \r\n         strings.push(data);\r\n            balance.push(msg.value);\r\nif(count==9){\r\n    send();\r\n}\r\nelse{\r\n       count++;}\r\n    }\r\nfunction getcount() public view  returns(uint){\r\n\r\n    return count;\r\n}\r\n}\r\n",
  "sourcePath": "C:\\Users\\shanu\\Desktop\\Studies\\FYP\\blockchain\\contracts\\blockchain.sol",
  "compiler": {
    "name": "solc",
    "version": "0.5.16+commit.9c3226ce.Emscripten.clang"
  },
  "schemaVersion": "3.4.13",
  "updatedAt": "2023-04-17T21:49:55.330Z",
  "networkType": "ethereum",
  "devdoc": {
    "methods": {}
  },
  "userdoc": {
    "methods": {}
  }
}